{
  "_format": "hh-sol-artifact-1",
  "contractName": "KoyeCertificate",
  "sourceName": "contracts/KoyeCertificate.sol",
  "abi": [
    {
      "inputs": [
        {
          "internalType": "string",
          "name": "name_",
          "type": "string"
        },
        {
          "internalType": "string",
          "name": "symbol_",
          "type": "string"
        },
        {
          "internalType": "string",
          "name": "baseURI_",
          "type": "string"
        }
      ],
      "stateMutability": "nonpayable",
      "type": "constructor"
    },
    {
      "anonymous": false,
      "inputs": [
        {
          "indexed": true,
          "internalType": "address",
          "name": "owner",
          "type": "address"
        },
        {
          "indexed": true,
          "internalType": "address",
          "name": "approved",
          "type": "address"
        },
        {
          "indexed": true,
          "internalType": "uint256",
          "name": "tokenId",
          "type": "uint256"
        }
      ],
      "name": "Approval",
      "type": "event"
    },
    {
      "anonymous": false,
      "inputs": [
        {
          "indexed": true,
          "internalType": "address",
          "name": "owner",
          "type": "address"
        },
        {
          "indexed": true,
          "internalType": "address",
          "name": "operator",
          "type": "address"
        },
        {
          "indexed": false,
          "internalType": "bool",
          "name": "approved",
          "type": "bool"
        }
      ],
      "name": "ApprovalForAll",
      "type": "event"
    },
    {
      "anonymous": false,
      "inputs": [
        {
          "indexed": true,
          "internalType": "uint256",
          "name": "tokenId",
          "type": "uint256"
        },
        {
          "indexed": true,
          "internalType": "address",
          "name": "creator",
          "type": "address"
        },
        {
          "indexed": false,
          "internalType": "bytes32",
          "name": "metadataHash",
          "type": "bytes32"
        },
        {
          "indexed": false,
          "internalType": "uint8",
          "name": "contentType",
          "type": "uint8"
        },
        {
          "indexed": false,
          "internalType": "string",
          "name": "tokenURI",
          "type": "string"
        }
      ],
      "name": "CertificateMinted",
      "type": "event"
    },
    {
      "anonymous": false,
      "inputs": [
        {
          "indexed": true,
          "internalType": "address",
          "name": "previousOwner",
          "type": "address"
        },
        {
          "indexed": true,
          "internalType": "address",
          "name": "newOwner",
          "type": "address"
        }
      ],
      "name": "OwnershipTransferred",
      "type": "event"
    },
    {
      "anonymous": false,
      "inputs": [
        {
          "indexed": false,
          "internalType": "address",
          "name": "account",
          "type": "address"
        }
      ],
      "name": "Paused",
      "type": "event"
    },
    {
      "anonymous": false,
      "inputs": [
        {
          "indexed": true,
          "internalType": "address",
          "name": "from",
          "type": "address"
        },
        {
          "indexed": true,
          "internalType": "address",
          "name": "to",
          "type": "address"
        },
        {
          "indexed": true,
          "internalType": "uint256",
          "name": "tokenId",
          "type": "uint256"
        }
      ],
      "name": "Transfer",
      "type": "event"
    },
    {
      "anonymous": false,
      "inputs": [
        {
          "indexed": false,
          "internalType": "address",
          "name": "account",
          "type": "address"
        }
      ],
      "name": "Unpaused",
      "type": "event"
    },
    {
      "inputs": [
        {
          "internalType": "address",
          "name": "to",
          "type": "address"
        },
        {
          "internalType": "uint256",
          "name": "tokenId",
          "type": "uint256"
        }
      ],
      "name": "approve",
      "outputs": [],
      "stateMutability": "nonpayable",
      "type": "function"
    },
    {
      "inputs": [
        {
          "internalType": "address",
          "name": "owner",
          "type": "address"
        }
      ],
      "name": "balanceOf",
      "outputs": [
        {
          "internalType": "uint256",
          "name": "",
          "type": "uint256"
        }
      ],
      "stateMutability": "view",
      "type": "function"
    },
    {
      "inputs": [
        {
          "internalType": "address[]",
          "name": "to",
          "type": "address[]"
        },
        {
          "internalType": "bytes32[]",
          "name": "metadataHashes",
          "type": "bytes32[]"
        },
        {
          "internalType": "uint8[]",
          "name": "contentTypes",
          "type": "uint8[]"
        }
      ],
      "name": "batchMint",
      "outputs": [
        {
          "internalType": "uint256[]",
          "name": "",
          "type": "uint256[]"
        }
      ],
      "stateMutability": "nonpayable",
      "type": "function"
    },
    {
      "inputs": [
        {
          "internalType": "uint256",
          "name": "tokenId",
          "type": "uint256"
        }
      ],
      "name": "getApproved",
      "outputs": [
        {
          "internalType": "address",
          "name": "",
          "type": "address"
        }
      ],
      "stateMutability": "view",
      "type": "function"
    },
    {
      "inputs": [
        {
          "internalType": "uint256",
          "name": "tokenId",
          "type": "uint256"
        }
      ],
      "name": "getCertificate",
      "outputs": [
        {
          "internalType": "bytes32",
          "name": "",
          "type": "bytes32"
        },
        {
          "internalType": "uint8",
          "name": "",
          "type": "uint8"
        },
        {
          "internalType": "uint64",
          "name": "",
          "type": "uint64"
        },
        {
          "internalType": "address",
          "name": "",
          "type": "address"
        }
      ],
      "stateMutability": "view",
      "type": "function"
    },
    {
      "inputs": [
        {
          "internalType": "address",
          "name": "owner",
          "type": "address"
        },
        {
          "internalType": "address",
          "name": "operator",
          "type": "address"
        }
      ],
      "name": "isApprovedForAll",
      "outputs": [
        {
          "internalType": "bool",
          "name": "",
          "type": "bool"
        }
      ],
      "stateMutability": "view",
      "type": "function"
    },
    {
      "inputs": [
        {
          "internalType": "address",
          "name": "",
          "type": "address"
        }
      ],
      "name": "isMinter",
      "outputs": [
        {
          "internalType": "bool",
          "name": "",
          "type": "bool"
        }
      ],
      "stateMutability": "view",
      "type": "function"
    },
    {
      "inputs": [
        {
          "internalType": "address",
          "name": "to",
          "type": "address"
        },
        {
          "internalType": "bytes32",
          "name": "metadataHash",
          "type": "bytes32"
        },
        {
          "internalType": "uint8",
          "name": "contentType",
          "type": "uint8"
        }
      ],
      "name": "mintCertificate",
      "outputs": [
        {
          "internalType": "uint256",
          "name": "",
          "type": "uint256"
        }
      ],
      "stateMutability": "nonpayable",
      "type": "function"
    },
    {
      "inputs": [],
      "name": "name",
      "outputs": [
        {
          "internalType": "string",
          "name": "",
          "type": "string"
        }
      ],
      "stateMutability": "view",
      "type": "function"
    },
    {
      "inputs": [],
      "name": "owner",
      "outputs": [
        {
          "internalType": "address",
          "name": "",
          "type": "address"
        }
      ],
      "stateMutability": "view",
      "type": "function"
    },
    {
      "inputs": [
        {
          "internalType": "uint256",
          "name": "tokenId",
          "type": "uint256"
        }
      ],
      "name": "ownerOf",
      "outputs": [
        {
          "internalType": "address",
          "name": "",
          "type": "address"
        }
      ],
      "stateMutability": "view",
      "type": "function"
    },
    {
      "inputs": [],
      "name": "paused",
      "outputs": [
        {
          "internalType": "bool",
          "name": "",
          "type": "bool"
        }
      ],
      "stateMutability": "view",
      "type": "function"
    },
    {
      "inputs": [],
      "name": "renounceOwnership",
      "outputs": [],
      "stateMutability": "nonpayable",
      "type": "function"
    },
    {
      "inputs": [
        {
          "internalType": "address",
          "name": "from",
          "type": "address"
        },
        {
          "internalType": "address",
          "name": "to",
          "type": "address"
        },
        {
          "internalType": "uint256",
          "name": "tokenId",
          "type": "uint256"
        }
      ],
      "name": "safeTransferFrom",
      "outputs": [],
      "stateMutability": "nonpayable",
      "type": "function"
    },
    {
      "inputs": [
        {
          "internalType": "address",
          "name": "from",
          "type": "address"
        },
        {
          "internalType": "address",
          "name": "to",
          "type": "address"
        },
        {
          "internalType": "uint256",
          "name": "tokenId",
          "type": "uint256"
        },
        {
          "internalType": "bytes",
          "name": "data",
          "type": "bytes"
        }
      ],
      "name": "safeTransferFrom",
      "outputs": [],
      "stateMutability": "nonpayable",
      "type": "function"
    },
    {
      "inputs": [
        {
          "internalType": "address",
          "name": "operator",
          "type": "address"
        },
        {
          "internalType": "bool",
          "name": "approved",
          "type": "bool"
        }
      ],
      "name": "setApprovalForAll",
      "outputs": [],
      "stateMutability": "nonpayable",
      "type": "function"
    },
    {
      "inputs": [
        {
          "internalType": "string",
          "name": "baseURI_",
          "type": "string"
        }
      ],
      "name": "setBaseURI",
      "outputs": [],
      "stateMutability": "nonpayable",
      "type": "function"
    },
    {
      "inputs": [
        {
          "internalType": "address",
          "name": "minter",
          "type": "address"
        },
        {
          "internalType": "bool",
          "name": "allowed",
          "type": "bool"
        }
      ],
      "name": "setMinter",
      "outputs": [],
      "stateMutability": "nonpayable",
      "type": "function"
    },
    {
      "inputs": [
        {
          "internalType": "bytes4",
          "name": "interfaceId",
          "type": "bytes4"
        }
      ],
      "name": "supportsInterface",
      "outputs": [
        {
          "internalType": "bool",
          "name": "",
          "type": "bool"
        }
      ],
      "stateMutability": "view",
      "type": "function"
    },
    {
      "inputs": [],
      "name": "symbol",
      "outputs": [
        {
          "internalType": "string",
          "name": "",
          "type": "string"
        }
      ],
      "stateMutability": "view",
      "type": "function"
    },
    {
      "inputs": [
        {
          "internalType": "uint256",
          "name": "tokenId",
          "type": "uint256"
        }
      ],
      "name": "tokenURI",
      "outputs": [
        {
          "internalType": "string",
          "name": "",
          "type": "string"
        }
      ],
      "stateMutability": "view",
      "type": "function"
    },
    {
      "inputs": [
        {
          "internalType": "address",
          "name": "from",
          "type": "address"
        },
        {
          "internalType": "address",
          "name": "to",
          "type": "address"
        },
        {
          "internalType": "uint256",
          "name": "tokenId",
          "type": "uint256"
        }
      ],
      "name": "transferFrom",
      "outputs": [],
      "stateMutability": "nonpayable",
      "type": "function"
    },
    {
      "inputs": [
        {
          "internalType": "address",
          "name": "newOwner",
          "type": "address"
        }
      ],
      "name": "transferOwnership",
      "outputs": [],
      "stateMutability": "nonpayable",
      "type": "function"
    }
  ],
  "bytecode": "0x60806040523480156200001157600080fd5b506040516200481b3803806200481b83398181016040528101906200003791906200031e565b828281600090816200004a919062000622565b5080600190816200005c919062000622565b5050506200007f62000073620000bd60201b60201c565b620000c560201b60201c565b6000600660146101000a81548160ff021916908315150217905550600160078190555080600a9081620000b3919062000622565b5050505062000709565b600033905090565b6000600660009054906101000a900473ffffffffffffffffffffffffffffffffffffffff16905081600660006101000a81548173ffffffffffffffffffffffffffffffffffffffff021916908373ffffffffffffffffffffffffffffffffffffffff1602179055508173ffffffffffffffffffffffffffffffffffffffff168173ffffffffffffffffffffffffffffffffffffffff167f8be0079c531659141344cd1fd0a4f28419497f9722a3daafe3b4186f6b6457e060405160405180910390a35050565b6000604051905090565b600080fd5b600080fd5b600080fd5b600080fd5b6000601f19601f8301169050919050565b7f4e487b7100000000000000000000000000000000000000000000000000000000600052604160045260246000fd5b620001f482620001a9565b810181811067ffffffffffffffff82111715620002165762000215620001ba565b5b80604052505050565b60006200022b6200018b565b9050620002398282620001e9565b919050565b600067ffffffffffffffff8211156200025c576200025b620001ba565b5b6200026782620001a9565b9050602081019050919050565b60005b838110156200029457808201518184015260208101905062000277565b60008484015250505050565b6000620002b7620002b1846200023e565b6200021f565b905082815260208101848484011115620002d657620002d5620001a4565b5b620002e384828562000274565b509392505050565b600082601f8301126200030357620003026200019f565b5b815162000315848260208601620002a0565b91505092915050565b6000806000606084860312156200033a576200033962000195565b5b600084015167ffffffffffffffff8111156200035b576200035a6200019a565b5b6200036986828701620002eb565b935050602084015167ffffffffffffffff8111156200038d576200038c6200019a565b5b6200039b86828701620002eb565b925050604084015167ffffffffffffffff811115620003bf57620003be6200019a565b5b620003cd86828701620002eb565b9150509250925092565b600081519050919050565b7f4e487b7100000000000000000000000000000000000000000000000000000000600052602260045260246000fd5b600060028204905060018216806200042a57607f821691505b60208210810362000440576200043f620003e2565b5b50919050565b60008190508160005260206000209050919050565b60006020601f8301049050919050565b600082821b905092915050565b600060088302620004aa7fffffffffffffffffffffffffffffffffffffffffffffffffffffffffffffffff826200046b565b620004b686836200046b565b95508019841693508086168417925050509392505050565b6000819050919050565b6000819050919050565b600062000503620004fd620004f784620004ce565b620004d8565b620004ce565b9050919050565b6000819050919050565b6200051f83620004e2565b620005376200052e826200050a565b84845462000478565b825550505050565b600090565b6200054e6200053f565b6200055b81848462000514565b505050565b5b8181101562000583576200057760008262000544565b60018101905062000561565b5050565b601f821115620005d2576200059c8162000446565b620005a7846200045b565b81016020851015620005b7578190505b620005cf620005c6856200045b565b83018262000560565b50505b505050565b600082821c905092915050565b6000620005f760001984600802620005d7565b1980831691505092915050565b6000620006128383620005e4565b9150826002028217905092915050565b6200062d82620003d7565b67ffffffffffffffff811115620006495762000648620001ba565b5b62000655825462000411565b6200066282828562000587565b600060209050601f8311600181146200069a576000841562000685578287015190505b62000691858262000604565b86555062000701565b601f198416620006aa8662000446565b60005b82811015620006d457848901518255600182019150602085019450602081019050620006ad565b86831015620006f45784890151620006f0601f891682620005e4565b8355505b6001600288020188555050505b505050505050565b61410280620007196000396000f3fe608060405234801561001057600080fd5b506004361061014d5760003560e01c806370a08231116100c3578063aa271e1a1161007c578063aa271e1a146103b3578063b88d4fde146103e3578063c87b56dd146103ff578063cf456ae71461042f578063e985e9c51461044b578063f2fde38b1461047b5761014d565b806370a08231146102f1578063715018a614610321578063867eb6441461032b5780638da5cb5b1461035b57806395d89b4114610379578063a22cb465146103975761014d565b806342842e0e1161011557806342842e0e146102085780634536041e1461022457806351640fee1461025457806355f804b3146102875780635c975abb146102a35780636352211e146102c15761014d565b806301ffc9a71461015257806306fdde0314610182578063081812fc146101a0578063095ea7b3146101d057806323b872dd146101ec575b600080fd5b61016c60048036038101906101679190612742565b610497565b604051610179919061278a565b60405180910390f35b61018a610579565b6040516101979190612835565b60405180910390f35b6101ba60048036038101906101b5919061288d565b61060b565b6040516101c791906128fb565b60405180910390f35b6101ea60048036038101906101e59190612942565b610651565b005b61020660048036038101906102019190612982565b610768565b005b610222600480360381019061021d9190612982565b6107c8565b005b61023e60048036038101906102399190612a44565b6107e8565b60405161024b9190612aa6565b60405180910390f35b61026e6004803603810190610269919061288d565b610ae6565b60405161027e9493929190612b02565b60405180910390f35b6102a1600480360381019061029c9190612bac565b610c29565b005b6102ab610c47565b6040516102b8919061278a565b60405180910390f35b6102db60048036038101906102d6919061288d565b610c5e565b6040516102e891906128fb565b60405180910390f35b61030b60048036038101906103069190612bf9565b610ce4565b6040516103189190612aa6565b60405180910390f35b610329610d9b565b005b61034560048036038101906103409190612d28565b610daf565b6040516103529190612e9a565b60405180910390f35b6103636112b3565b60405161037091906128fb565b60405180910390f35b6103816112dd565b60405161038e9190612835565b60405180910390f35b6103b160048036038101906103ac9190612ee8565b61136f565b005b6103cd60048036038101906103c89190612bf9565b611385565b6040516103da919061278a565b60405180910390f35b6103fd60048036038101906103f89190613058565b6113a5565b005b6104196004803603810190610414919061288d565b611407565b6040516104269190612835565b60405180910390f35b61044960048036038101906104449190612ee8565b6114ae565b005b610465600480360381019061046091906130db565b611511565b604051610472919061278a565b60405180910390f35b61049560048036038101906104909190612bf9565b6115a5565b005b60007f80ac58cd000000000000000000000000000000000000000000000000000000007bffffffffffffffffffffffffffffffffffffffffffffffffffffffff1916827bffffffffffffffffffffffffffffffffffffffffffffffffffffffff1916148061056257507f5b5e139f000000000000000000000000000000000000000000000000000000007bffffffffffffffffffffffffffffffffffffffffffffffffffffffff1916827bffffffffffffffffffffffffffffffffffffffffffffffffffffffff1916145b80610572575061057182611628565b5b9050919050565b6060600080546105889061314a565b80601f01602080910402602001604051908101604052809291908181526020018280546105b49061314a565b80156106015780601f106105d657610100808354040283529160200191610601565b820191906000526020600020905b8154815290600101906020018083116105e457829003601f168201915b5050505050905090565b600061061682611692565b6004600083815260200190815260200160002060009054906101000a900473ffffffffffffffffffffffffffffffffffffffff169050919050565b600061065c82610c5e565b90508073ffffffffffffffffffffffffffffffffffffffff168373ffffffffffffffffffffffffffffffffffffffff16036106cc576040517f08c379a00000000000000000000000000000000000000000000000000000000081526004016106c3906131ed565b60405180910390fd5b8073ffffffffffffffffffffffffffffffffffffffff166106eb6116dd565b73ffffffffffffffffffffffffffffffffffffffff16148061071a5750610719816107146116dd565b611511565b5b610759576040517f08c379a00000000000000000000000000000000000000000000000000000000081526004016107509061327f565b60405180910390fd5b61076383836116e5565b505050565b6107796107736116dd565b8261179e565b6107b8576040517f08c379a00000000000000000000000000000000000000000000000000000000081526004016107af90613311565b60405180910390fd5b6107c3838383611833565b505050565b6107e3838383604051806020016040528060008152506113a5565b505050565b60006107f2611b2c565b6107fa611b76565b600b60003373ffffffffffffffffffffffffffffffffffffffff1673ffffffffffffffffffffffffffffffffffffffff16815260200190815260200160002060009054906101000a900460ff168061088457503373ffffffffffffffffffffffffffffffffffffffff1661086c6112b3565b73ffffffffffffffffffffffffffffffffffffffff16145b6108c3576040517f08c379a00000000000000000000000000000000000000000000000000000000081526004016108ba9061337d565b60405180910390fd5b6000801b8303610908576040517f08c379a00000000000000000000000000000000000000000000000000000000081526004016108ff906133e9565b60405180910390fd5b6109126008611bc5565b600061091e6008611bdb565b905061092a8582611be9565b60405180608001604052808581526020018460ff1681526020014267ffffffffffffffff1681526020018673ffffffffffffffffffffffffffffffffffffffff16815250600960008381526020019081526020016000206000820151816000015560208201518160010160006101000a81548160ff021916908360ff16021790555060408201518160010160016101000a81548167ffffffffffffffff021916908367ffffffffffffffff16021790555060608201518160010160096101000a81548173ffffffffffffffffffffffffffffffffffffffff021916908373ffffffffffffffffffffffffffffffffffffffff160217905550905050600080600a8054610a359061314a565b905011610a515760405180602001604052806000815250610a7d565b600a610a5c83611c07565b604051602001610a6d9291906134dd565b6040516020818303038152906040525b90508573ffffffffffffffffffffffffffffffffffffffff16827fb574c075debf8daaa69fa281ea0c7b2f6c25736e09f1d31d08e07fd9b91cbcca878785604051610aca93929190613501565b60405180910390a38192505050610adf611cd5565b9392505050565b600080600080610af585611cdf565b610b34576040517f08c379a0000000000000000000000000000000000000000000000000000000008152600401610b2b9061358b565b60405180910390fd5b600060096000878152602001908152602001600020604051806080016040529081600082015481526020016001820160009054906101000a900460ff1660ff1660ff1681526020016001820160019054906101000a900467ffffffffffffffff1667ffffffffffffffff1667ffffffffffffffff1681526020016001820160099054906101000a900473ffffffffffffffffffffffffffffffffffffffff1673ffffffffffffffffffffffffffffffffffffffff1673ffffffffffffffffffffffffffffffffffffffff1681525050905080600001518160200151826040015183606001519450945094509450509193509193565b610c31611d20565b8181600a9182610c4292919061374d565b505050565b6000600660149054906101000a900460ff16905090565b600080610c6a83611d9e565b9050600073ffffffffffffffffffffffffffffffffffffffff168173ffffffffffffffffffffffffffffffffffffffff1603610cdb576040517f08c379a0000000000000000000000000000000000000000000000000000000008152600401610cd290613869565b60405180910390fd5b80915050919050565b60008073ffffffffffffffffffffffffffffffffffffffff168273ffffffffffffffffffffffffffffffffffffffff1603610d54576040517f08c379a0000000000000000000000000000000000000000000000000000000008152600401610d4b906138fb565b60405180910390fd5b600360008373ffffffffffffffffffffffffffffffffffffffff1673ffffffffffffffffffffffffffffffffffffffff168152602001908152602001600020549050919050565b610da3611d20565b610dad6000611ddb565b565b6060610db9611b2c565b610dc1611b76565b600b60003373ffffffffffffffffffffffffffffffffffffffff1673ffffffffffffffffffffffffffffffffffffffff16815260200190815260200160002060009054906101000a900460ff1680610e4b57503373ffffffffffffffffffffffffffffffffffffffff16610e336112b3565b73ffffffffffffffffffffffffffffffffffffffff16145b610e8a576040517f08c379a0000000000000000000000000000000000000000000000000000000008152600401610e819061337d565b60405180910390fd5b6000878790509050600081118015610ea457508086869050145b8015610eb257508084849050145b610ef1576040517f08c379a0000000000000000000000000000000000000000000000000000000008152600401610ee890613967565b60405180910390fd5b60008167ffffffffffffffff811115610f0d57610f0c612f2d565b5b604051908082528060200260200182016040528015610f3b5781602001602082028036833780820191505090505b50905060005b8281101561129b576000801b888883818110610f6057610f5f613987565b5b9050602002013503610fa7576040517f08c379a0000000000000000000000000000000000000000000000000000000008152600401610f9e906133e9565b60405180910390fd5b610fb16008611bc5565b6000610fbd6008611bdb565b9050610ff08b8b84818110610fd557610fd4613987565b5b9050602002016020810190610fea9190612bf9565b82611be9565b60405180608001604052808a8a8581811061100e5761100d613987565b5b90506020020135815260200188888581811061102d5761102c613987565b5b905060200201602081019061104291906139b6565b60ff1681526020014267ffffffffffffffff1681526020018c8c8581811061106d5761106c613987565b5b90506020020160208101906110829190612bf9565b73ffffffffffffffffffffffffffffffffffffffff16815250600960008381526020019081526020016000206000820151816000015560208201518160010160006101000a81548160ff021916908360ff16021790555060408201518160010160016101000a81548167ffffffffffffffff021916908367ffffffffffffffff16021790555060608201518160010160096101000a81548173ffffffffffffffffffffffffffffffffffffffff021916908373ffffffffffffffffffffffffffffffffffffffff160217905550905050600080600a80546111629061314a565b90501161117e57604051806020016040528060008152506111aa565b600a61118983611c07565b60405160200161119a9291906134dd565b6040516020818303038152906040525b90508b8b848181106111bf576111be613987565b5b90506020020160208101906111d49190612bf9565b73ffffffffffffffffffffffffffffffffffffffff16827fb574c075debf8daaa69fa281ea0c7b2f6c25736e09f1d31d08e07fd9b91cbcca8c8c8781811061121f5761121e613987565b5b905060200201358b8b8881811061123957611238613987565b5b905060200201602081019061124e91906139b6565b8560405161125e93929190613501565b60405180910390a38184848151811061127a57611279613987565b5b6020026020010181815250505050808061129390613a12565b915050610f41565b5080925050506112a9611cd5565b9695505050505050565b6000600660009054906101000a900473ffffffffffffffffffffffffffffffffffffffff16905090565b6060600180546112ec9061314a565b80601f01602080910402602001604051908101604052809291908181526020018280546113189061314a565b80156113655780601f1061133a57610100808354040283529160200191611365565b820191906000526020600020905b81548152906001019060200180831161134857829003601f168201915b5050505050905090565b61138161137a6116dd565b8383611ea1565b5050565b600b6020528060005260406000206000915054906101000a900460ff1681565b6113b66113b06116dd565b8361179e565b6113f5576040517f08c379a00000000000000000000000000000000000000000000000000000000081526004016113ec90613311565b60405180910390fd5b6114018484848461200d565b50505050565b606061141282611cdf565b611451576040517f08c379a00000000000000000000000000000000000000000000000000000000081526004016114489061358b565b60405180910390fd5b600061145b612069565b9050600081511161147b57604051806020016040528060008152506114a6565b8061148584611c07565b604051602001611496929190613a5a565b6040516020818303038152906040525b915050919050565b6114b6611d20565b80600b60008473ffffffffffffffffffffffffffffffffffffffff1673ffffffffffffffffffffffffffffffffffffffff16815260200190815260200160002060006101000a81548160ff0219169083151502179055505050565b6000600560008473ffffffffffffffffffffffffffffffffffffffff1673ffffffffffffffffffffffffffffffffffffffff16815260200190815260200160002060008373ffffffffffffffffffffffffffffffffffffffff1673ffffffffffffffffffffffffffffffffffffffff16815260200190815260200160002060009054906101000a900460ff16905092915050565b6115ad611d20565b600073ffffffffffffffffffffffffffffffffffffffff168173ffffffffffffffffffffffffffffffffffffffff160361161c576040517f08c379a000000000000000000000000000000000000000000000000000000000815260040161161390613af0565b60405180910390fd5b61162581611ddb565b50565b60007f01ffc9a7000000000000000000000000000000000000000000000000000000007bffffffffffffffffffffffffffffffffffffffffffffffffffffffff1916827bffffffffffffffffffffffffffffffffffffffffffffffffffffffff1916149050919050565b61169b81611cdf565b6116da576040517f08c379a00000000000000000000000000000000000000000000000000000000081526004016116d190613869565b60405180910390fd5b50565b600033905090565b816004600083815260200190815260200160002060006101000a81548173ffffffffffffffffffffffffffffffffffffffff021916908373ffffffffffffffffffffffffffffffffffffffff160217905550808273ffffffffffffffffffffffffffffffffffffffff1661175883610c5e565b73ffffffffffffffffffffffffffffffffffffffff167f8c5be1e5ebec7d5bd14f71427d1e84f3dd0314c0f7b2291e5b200ac8c7c3b92560405160405180910390a45050565b6000806117aa83610c5e565b90508073ffffffffffffffffffffffffffffffffffffffff168473ffffffffffffffffffffffffffffffffffffffff1614806117ec57506117eb8185611511565b5b8061182a57508373ffffffffffffffffffffffffffffffffffffffff166118128461060b565b73ffffffffffffffffffffffffffffffffffffffff16145b91505092915050565b8273ffffffffffffffffffffffffffffffffffffffff1661185382610c5e565b73ffffffffffffffffffffffffffffffffffffffff16146118a9576040517f08c379a00000000000000000000000000000000000000000000000000000000081526004016118a090613b82565b60405180910390fd5b600073ffffffffffffffffffffffffffffffffffffffff168273ffffffffffffffffffffffffffffffffffffffff1603611918576040517f08c379a000000000000000000000000000000000000000000000000000000000815260040161190f90613c14565b60405180910390fd5b61192583838360016120fb565b8273ffffffffffffffffffffffffffffffffffffffff1661194582610c5e565b73ffffffffffffffffffffffffffffffffffffffff161461199b576040517f08c379a000000000000000000000000000000000000000000000000000000000815260040161199290613b82565b60405180910390fd5b6004600082815260200190815260200160002060006101000a81549073ffffffffffffffffffffffffffffffffffffffff02191690556001600360008573ffffffffffffffffffffffffffffffffffffffff1673ffffffffffffffffffffffffffffffffffffffff168152602001908152602001600020600082825403925050819055506001600360008473ffffffffffffffffffffffffffffffffffffffff1673ffffffffffffffffffffffffffffffffffffffff16815260200190815260200160002060008282540192505081905550816002600083815260200190815260200160002060006101000a81548173ffffffffffffffffffffffffffffffffffffffff021916908373ffffffffffffffffffffffffffffffffffffffff160217905550808273ffffffffffffffffffffffffffffffffffffffff168473ffffffffffffffffffffffffffffffffffffffff167fddf252ad1be2c89b69c2b068fc378daa952ba7f163c4a11628f55a4df523b3ef60405160405180910390a4611b278383836001612155565b505050565b611b34610c47565b15611b74576040517f08c379a0000000000000000000000000000000000000000000000000000000008152600401611b6b90613c80565b60405180910390fd5b565b600260075403611bbb576040517f08c379a0000000000000000000000000000000000000000000000000000000008152600401611bb290613cec565b60405180910390fd5b6002600781905550565b6001816000016000828254019250508190555050565b600081600001549050919050565b611c0382826040518060200160405280600081525061215b565b5050565b606060006001611c16846121b6565b01905060008167ffffffffffffffff811115611c3557611c34612f2d565b5b6040519080825280601f01601f191660200182016040528015611c675781602001600182028036833780820191505090505b509050600082602001820190505b600115611cca578080600190039150507f3031323334353637383961626364656600000000000000000000000000000000600a86061a8153600a8581611cbe57611cbd613d0c565b5b04945060008503611c75575b819350505050919050565b6001600781905550565b60008073ffffffffffffffffffffffffffffffffffffffff16611d0183611d9e565b73ffffffffffffffffffffffffffffffffffffffff1614159050919050565b611d286116dd565b73ffffffffffffffffffffffffffffffffffffffff16611d466112b3565b73ffffffffffffffffffffffffffffffffffffffff1614611d9c576040517f08c379a0000000000000000000000000000000000000000000000000000000008152600401611d9390613d87565b60405180910390fd5b565b60006002600083815260200190815260200160002060009054906101000a900473ffffffffffffffffffffffffffffffffffffffff169050919050565b6000600660009054906101000a900473ffffffffffffffffffffffffffffffffffffffff16905081600660006101000a81548173ffffffffffffffffffffffffffffffffffffffff021916908373ffffffffffffffffffffffffffffffffffffffff1602179055508173ffffffffffffffffffffffffffffffffffffffff168173ffffffffffffffffffffffffffffffffffffffff167f8be0079c531659141344cd1fd0a4f28419497f9722a3daafe3b4186f6b6457e060405160405180910390a35050565b8173ffffffffffffffffffffffffffffffffffffffff168373ffffffffffffffffffffffffffffffffffffffff1603611f0f576040517f08c379a0000000000000000000000000000000000000000000000000000000008152600401611f0690613df3565b60405180910390fd5b80600560008573ffffffffffffffffffffffffffffffffffffffff1673ffffffffffffffffffffffffffffffffffffffff16815260200190815260200160002060008473ffffffffffffffffffffffffffffffffffffffff1673ffffffffffffffffffffffffffffffffffffffff16815260200190815260200160002060006101000a81548160ff0219169083151502179055508173ffffffffffffffffffffffffffffffffffffffff168373ffffffffffffffffffffffffffffffffffffffff167f17307eab39ab6107e8899845ad3d59bd9653f200f220920489ca2b5937696c3183604051612000919061278a565b60405180910390a3505050565b612018848484611833565b61202484848484612309565b612063576040517f08c379a000000000000000000000000000000000000000000000000000000000815260040161205a90613e85565b60405180910390fd5b50505050565b6060600a80546120789061314a565b80601f01602080910402602001604051908101604052809291908181526020018280546120a49061314a565b80156120f15780601f106120c6576101008083540402835291602001916120f1565b820191906000526020600020905b8154815290600101906020018083116120d457829003601f168201915b5050505050905090565b61210784848484612490565b61210f610c47565b1561214f576040517f08c379a000000000000000000000000000000000000000000000000000000000815260040161214690613ef1565b60405180910390fd5b50505050565b50505050565b6121658383612496565b6121726000848484612309565b6121b1576040517f08c379a00000000000000000000000000000000000000000000000000000000081526004016121a890613e85565b60405180910390fd5b505050565b600080600090507a184f03e93ff9f4daa797ed6e38ed64bf6a1f0100000000000000008310612214577a184f03e93ff9f4daa797ed6e38ed64bf6a1f010000000000000000838161220a57612209613d0c565b5b0492506040810190505b6d04ee2d6d415b85acef81000000008310612251576d04ee2d6d415b85acef8100000000838161224757612246613d0c565b5b0492506020810190505b662386f26fc10000831061228057662386f26fc10000838161227657612275613d0c565b5b0492506010810190505b6305f5e10083106122a9576305f5e100838161229f5761229e613d0c565b5b0492506008810190505b61271083106122ce5761271083816122c4576122c3613d0c565b5b0492506004810190505b606483106122f157606483816122e7576122e6613d0c565b5b0492506002810190505b600a8310612300576001810190505b80915050919050565b600061232a8473ffffffffffffffffffffffffffffffffffffffff166126b3565b15612483578373ffffffffffffffffffffffffffffffffffffffff1663150b7a026123536116dd565b8786866040518563ffffffff1660e01b81526004016123759493929190613f66565b6020604051808303816000875af19250505080156123b157506040513d601f19601f820116820180604052508101906123ae9190613fc7565b60015b612433573d80600081146123e1576040519150601f19603f3d011682016040523d82523d6000602084013e6123e6565b606091505b50600081510361242b576040517f08c379a000000000000000000000000000000000000000000000000000000000815260040161242290613e85565b60405180910390fd5b805181602001fd5b63150b7a0260e01b7bffffffffffffffffffffffffffffffffffffffffffffffffffffffff1916817bffffffffffffffffffffffffffffffffffffffffffffffffffffffff191614915050612488565b600190505b949350505050565b50505050565b600073ffffffffffffffffffffffffffffffffffffffff168273ffffffffffffffffffffffffffffffffffffffff1603612505576040517f08c379a00000000000000000000000000000000000000000000000000000000081526004016124fc90614040565b60405180910390fd5b61250e81611cdf565b1561254e576040517f08c379a0000000000000000000000000000000000000000000000000000000008152600401612545906140ac565b60405180910390fd5b61255c6000838360016120fb565b61256581611cdf565b156125a5576040517f08c379a000000000000000000000000000000000000000000000000000000000815260040161259c906140ac565b60405180910390fd5b6001600360008473ffffffffffffffffffffffffffffffffffffffff1673ffffffffffffffffffffffffffffffffffffffff16815260200190815260200160002060008282540192505081905550816002600083815260200190815260200160002060006101000a81548173ffffffffffffffffffffffffffffffffffffffff021916908373ffffffffffffffffffffffffffffffffffffffff160217905550808273ffffffffffffffffffffffffffffffffffffffff16600073ffffffffffffffffffffffffffffffffffffffff167fddf252ad1be2c89b69c2b068fc378daa952ba7f163c4a11628f55a4df523b3ef60405160405180910390a46126af600083836001612155565b5050565b6000808273ffffffffffffffffffffffffffffffffffffffff163b119050919050565b6000604051905090565b600080fd5b600080fd5b60007fffffffff0000000000000000000000000000000000000000000000000000000082169050919050565b61271f816126ea565b811461272a57600080fd5b50565b60008135905061273c81612716565b92915050565b600060208284031215612758576127576126e0565b5b60006127668482850161272d565b91505092915050565b60008115159050919050565b6127848161276f565b82525050565b600060208201905061279f600083018461277b565b92915050565b600081519050919050565b600082825260208201905092915050565b60005b838110156127df5780820151818401526020810190506127c4565b60008484015250505050565b6000601f19601f8301169050919050565b6000612807826127a5565b61281181856127b0565b93506128218185602086016127c1565b61282a816127eb565b840191505092915050565b6000602082019050818103600083015261284f81846127fc565b905092915050565b6000819050919050565b61286a81612857565b811461287557600080fd5b50565b60008135905061288781612861565b92915050565b6000602082840312156128a3576128a26126e0565b5b60006128b184828501612878565b91505092915050565b600073ffffffffffffffffffffffffffffffffffffffff82169050919050565b60006128e5826128ba565b9050919050565b6128f5816128da565b82525050565b600060208201905061291060008301846128ec565b92915050565b61291f816128da565b811461292a57600080fd5b50565b60008135905061293c81612916565b92915050565b60008060408385031215612959576129586126e0565b5b60006129678582860161292d565b925050602061297885828601612878565b9150509250929050565b60008060006060848603121561299b5761299a6126e0565b5b60006129a98682870161292d565b93505060206129ba8682870161292d565b92505060406129cb86828701612878565b9150509250925092565b6000819050919050565b6129e8816129d5565b81146129f357600080fd5b50565b600081359050612a05816129df565b92915050565b600060ff82169050919050565b612a2181612a0b565b8114612a2c57600080fd5b50565b600081359050612a3e81612a18565b92915050565b600080600060608486031215612a5d57612a5c6126e0565b5b6000612a6b8682870161292d565b9350506020612a7c868287016129f6565b9250506040612a8d86828701612a2f565b9150509250925092565b612aa081612857565b82525050565b6000602082019050612abb6000830184612a97565b92915050565b612aca816129d5565b82525050565b612ad981612a0b565b82525050565b600067ffffffffffffffff82169050919050565b612afc81612adf565b82525050565b6000608082019050612b176000830187612ac1565b612b246020830186612ad0565b612b316040830185612af3565b612b3e60608301846128ec565b95945050505050565b600080fd5b600080fd5b600080fd5b60008083601f840112612b6c57612b6b612b47565b5b8235905067ffffffffffffffff811115612b8957612b88612b4c565b5b602083019150836001820283011115612ba557612ba4612b51565b5b9250929050565b60008060208385031215612bc357612bc26126e0565b5b600083013567ffffffffffffffff811115612be157612be06126e5565b5b612bed85828601612b56565b92509250509250929050565b600060208284031215612c0f57612c0e6126e0565b5b6000612c1d8482850161292d565b91505092915050565b60008083601f840112612c3c57612c3b612b47565b5b8235905067ffffffffffffffff811115612c5957612c58612b4c565b5b602083019150836020820283011115612c7557612c74612b51565b5b9250929050565b60008083601f840112612c9257612c91612b47565b5b8235905067ffffffffffffffff811115612caf57612cae612b4c565b5b602083019150836020820283011115612ccb57612cca612b51565b5b9250929050565b60008083601f840112612ce857612ce7612b47565b5b8235905067ffffffffffffffff811115612d0557612d04612b4c565b5b602083019150836020820283011115612d2157612d20612b51565b5b9250929050565b60008060008060008060608789031215612d4557612d446126e0565b5b600087013567ffffffffffffffff811115612d6357612d626126e5565b5b612d6f89828a01612c26565b9650965050602087013567ffffffffffffffff811115612d9257612d916126e5565b5b612d9e89828a01612c7c565b9450945050604087013567ffffffffffffffff811115612dc157612dc06126e5565b5b612dcd89828a01612cd2565b92509250509295509295509295565b600081519050919050565b600082825260208201905092915050565b6000819050602082019050919050565b612e1181612857565b82525050565b6000612e238383612e08565b60208301905092915050565b6000602082019050919050565b6000612e4782612ddc565b612e518185612de7565b9350612e5c83612df8565b8060005b83811015612e8d578151612e748882612e17565b9750612e7f83612e2f565b925050600181019050612e60565b5085935050505092915050565b60006020820190508181036000830152612eb48184612e3c565b905092915050565b612ec58161276f565b8114612ed057600080fd5b50565b600081359050612ee281612ebc565b92915050565b60008060408385031215612eff57612efe6126e0565b5b6000612f0d8582860161292d565b9250506020612f1e85828601612ed3565b9150509250929050565b600080fd5b7f4e487b7100000000000000000000000000000000000000000000000000000000600052604160045260246000fd5b612f65826127eb565b810181811067ffffffffffffffff82111715612f8457612f83612f2d565b5b80604052505050565b6000612f976126d6565b9050612fa38282612f5c565b919050565b600067ffffffffffffffff821115612fc357612fc2612f2d565b5b612fcc826127eb565b9050602081019050919050565b82818337600083830152505050565b6000612ffb612ff684612fa8565b612f8d565b90508281526020810184848401111561301757613016612f28565b5b613022848285612fd9565b509392505050565b600082601f83011261303f5761303e612b47565b5b813561304f848260208601612fe8565b91505092915050565b60008060008060808587031215613072576130716126e0565b5b60006130808782880161292d565b94505060206130918782880161292d565b93505060406130a287828801612878565b925050606085013567ffffffffffffffff8111156130c3576130c26126e5565b5b6130cf8782880161302a565b91505092959194509250565b600080604083850312156130f2576130f16126e0565b5b60006131008582860161292d565b92505060206131118582860161292d565b9150509250929050565b7f4e487b7100000000000000000000000000000000000000000000000000000000600052602260045260246000fd5b6000600282049050600182168061316257607f821691505b6020821081036131755761317461311b565b5b50919050565b7f4552433732313a20617070726f76616c20746f2063757272656e74206f776e6560008201527f7200000000000000000000000000000000000000000000000000000000000000602082015250565b60006131d76021836127b0565b91506131e28261317b565b604082019050919050565b60006020820190508181036000830152613206816131ca565b9050919050565b7f4552433732313a20617070726f76652063616c6c6572206973206e6f7420746f60008201527f6b656e206f776e6572206f7220617070726f76656420666f7220616c6c000000602082015250565b6000613269603d836127b0565b91506132748261320d565b604082019050919050565b600060208201905081810360008301526132988161325c565b9050919050565b7f4552433732313a2063616c6c6572206973206e6f7420746f6b656e206f776e6560008201527f72206f7220617070726f76656400000000000000000000000000000000000000602082015250565b60006132fb602d836127b0565b91506133068261329f565b604082019050919050565b6000602082019050818103600083015261332a816132ee565b9050919050565b7f4b6f79653a206e6f74206d696e74657200000000000000000000000000000000600082015250565b60006133676010836127b0565b915061337282613331565b602082019050919050565b600060208201905081810360008301526133968161335a565b9050919050565b7f4b6f79653a20696e76616c696400000000000000000000000000000000000000600082015250565b60006133d3600d836127b0565b91506133de8261339d565b602082019050919050565b60006020820190508181036000830152613402816133c6565b9050919050565b600081905092915050565b60008190508160005260206000209050919050565b600081546134368161314a565b6134408186613409565b9450600182166000811461345b5760018114613470576134a3565b60ff19831686528115158202860193506134a3565b61347985613414565b60005b8381101561349b5781548189015260018201915060208101905061347c565b838801955050505b50505092915050565b60006134b7826127a5565b6134c18185613409565b93506134d18185602086016127c1565b80840191505092915050565b60006134e98285613429565b91506134f582846134ac565b91508190509392505050565b60006060820190506135166000830186612ac1565b6135236020830185612ad0565b818103604083015261353581846127fc565b9050949350505050565b7f6e6f20746f6b656e000000000000000000000000000000000000000000000000600082015250565b60006135756008836127b0565b91506135808261353f565b602082019050919050565b600060208201905081810360008301526135a481613568565b9050919050565b600082905092915050565b60006020601f8301049050919050565b600082821b905092915050565b6000600883026136037fffffffffffffffffffffffffffffffffffffffffffffffffffffffffffffffff826135c6565b61360d86836135c6565b95508019841693508086168417925050509392505050565b6000819050919050565b600061364a61364561364084612857565b613625565b612857565b9050919050565b6000819050919050565b6136648361362f565b61367861367082613651565b8484546135d3565b825550505050565b600090565b61368d613680565b61369881848461365b565b505050565b5b818110156136bc576136b1600082613685565b60018101905061369e565b5050565b601f821115613701576136d281613414565b6136db846135b6565b810160208510156136ea578190505b6136fe6136f6856135b6565b83018261369d565b50505b505050565b600082821c905092915050565b600061372460001984600802613706565b1980831691505092915050565b600061373d8383613713565b9150826002028217905092915050565b61375783836135ab565b67ffffffffffffffff8111156137705761376f612f2d565b5b61377a825461314a565b6137858282856136c0565b6000601f8311600181146137b457600084156137a2578287013590505b6137ac8582613731565b865550613814565b601f1984166137c286613414565b60005b828110156137ea578489013582556001820191506020850194506020810190506137c5565b868310156138075784890135613803601f891682613713565b8355505b6001600288020188555050505b50505050505050565b7f4552433732313a20696e76616c696420746f6b656e2049440000000000000000600082015250565b60006138536018836127b0565b915061385e8261381d565b602082019050919050565b6000602082019050818103600083015261388281613846565b9050919050565b7f4552433732313a2061646472657373207a65726f206973206e6f74206120766160008201527f6c6964206f776e65720000000000000000000000000000000000000000000000602082015250565b60006138e56029836127b0565b91506138f082613889565b604082019050919050565b60006020820190508181036000830152613914816138d8565b9050919050565b7f4b6f79653a206261642061727261797300000000000000000000000000000000600082015250565b60006139516010836127b0565b915061395c8261391b565b602082019050919050565b6000602082019050818103600083015261398081613944565b9050919050565b7f4e487b7100000000000000000000000000000000000000000000000000000000600052603260045260246000fd5b6000602082840312156139cc576139cb6126e0565b5b60006139da84828501612a2f565b91505092915050565b7f4e487b7100000000000000000000000000000000000000000000000000000000600052601160045260246000fd5b6000613a1d82612857565b91507fffffffffffffffffffffffffffffffffffffffffffffffffffffffffffffffff8203613a4f57613a4e6139e3565b5b600182019050919050565b6000613a6682856134ac565b9150613a7282846134ac565b91508190509392505050565b7f4f776e61626c653a206e6577206f776e657220697320746865207a65726f206160008201527f6464726573730000000000000000000000000000000000000000000000000000602082015250565b6000613ada6026836127b0565b9150613ae582613a7e565b604082019050919050565b60006020820190508181036000830152613b0981613acd565b9050919050565b7f4552433732313a207472616e736665722066726f6d20696e636f72726563742060008201527f6f776e6572000000000000000000000000000000000000000000000000000000602082015250565b6000613b6c6025836127b0565b9150613b7782613b10565b604082019050919050565b60006020820190508181036000830152613b9b81613b5f565b9050919050565b7f4552433732313a207472616e7366657220746f20746865207a65726f2061646460008201527f7265737300000000000000000000000000000000000000000000000000000000602082015250565b6000613bfe6024836127b0565b9150613c0982613ba2565b604082019050919050565b60006020820190508181036000830152613c2d81613bf1565b9050919050565b7f5061757361626c653a2070617573656400000000000000000000000000000000600082015250565b6000613c6a6010836127b0565b9150613c7582613c34565b602082019050919050565b60006020820190508181036000830152613c9981613c5d565b9050919050565b7f5265656e7472616e637947756172643a207265656e7472616e742063616c6c00600082015250565b6000613cd6601f836127b0565b9150613ce182613ca0565b602082019050919050565b60006020820190508181036000830152613d0581613cc9565b9050919050565b7f4e487b7100000000000000000000000000000000000000000000000000000000600052601260045260246000fd5b7f4f776e61626c653a2063616c6c6572206973206e6f7420746865206f776e6572600082015250565b6000613d716020836127b0565b9150613d7c82613d3b565b602082019050919050565b60006020820190508181036000830152613da081613d64565b9050919050565b7f4552433732313a20617070726f766520746f2063616c6c657200000000000000600082015250565b6000613ddd6019836127b0565b9150613de882613da7565b602082019050919050565b60006020820190508181036000830152613e0c81613dd0565b9050919050565b7f4552433732313a207472616e7366657220746f206e6f6e20455243373231526560008201527f63656976657220696d706c656d656e7465720000000000000000000000000000602082015250565b6000613e6f6032836127b0565b9150613e7a82613e13565b604082019050919050565b60006020820190508181036000830152613e9e81613e62565b9050919050565b7f7061757365640000000000000000000000000000000000000000000000000000600082015250565b6000613edb6006836127b0565b9150613ee682613ea5565b602082019050919050565b60006020820190508181036000830152613f0a81613ece565b9050919050565b600081519050919050565b600082825260208201905092915050565b6000613f3882613f11565b613f428185613f1c565b9350613f528185602086016127c1565b613f5b816127eb565b840191505092915050565b6000608082019050613f7b60008301876128ec565b613f8860208301866128ec565b613f956040830185612a97565b8181036060830152613fa78184613f2d565b905095945050505050565b600081519050613fc181612716565b92915050565b600060208284031215613fdd57613fdc6126e0565b5b6000613feb84828501613fb2565b91505092915050565b7f4552433732313a206d696e7420746f20746865207a65726f2061646472657373600082015250565b600061402a6020836127b0565b915061403582613ff4565b602082019050919050565b600060208201905081810360008301526140598161401d565b9050919050565b7f4552433732313a20746f6b656e20616c7265616479206d696e74656400000000600082015250565b6000614096601c836127b0565b91506140a182614060565b602082019050919050565b600060208201905081810360008301526140c581614089565b905091905056fea26469706673582212205cffab607250cb630d8c0573ca6ec04c30c1f4a64fa84b25e8b2f216e179a81c64736f6c63430008140033",
  "linkReferences": {},
  "deployedLinkReferences": {}
}